{"abi":[{"type":"constructor","inputs":[{"name":"_registryAddress","type":"address","internalType":"address"},{"name":"_sarcTokenAddress","type":"address","internalType":"address"},{"name":"_maxDailyMint","type":"uint256","internalType":"uint256"},{"name":"_anomalyThreshold","type":"uint256","internalType":"uint256"}],"stateMutability":"nonpayable"},{"type":"function","name":"DEFAULT_ADMIN_ROLE","inputs":[],"outputs":[{"name":"","type":"bytes32","internalType":"bytes32"}],"stateMutability":"view"},{"type":"function","name":"KWH_TO_SARC_RATE","inputs":[],"outputs":[{"name":"","type":"uint256","internalType":"uint256"}],"stateMutability":"view"},{"type":"function","name":"MINTER_ROLE","inputs":[],"outputs":[{"name":"","type":"bytes32","internalType":"bytes32"}],"stateMutability":"view"},{"type":"function","name":"OPERATOR_ROLE","inputs":[],"outputs":[{"name":"","type":"bytes32","internalType":"bytes32"}],"stateMutability":"view"},{"type":"function","name":"anomalyThreshold","inputs":[],"outputs":[{"name":"","type":"uint256","internalType":"uint256"}],"stateMutability":"view"},{"type":"function","name":"circuitBreakerTriggered","inputs":[],"outputs":[{"name":"","type":"bool","internalType":"bool"}],"stateMutability":"view"},{"type":"function","name":"currentDayMinted","inputs":[],"outputs":[{"name":"","type":"uint256","internalType":"uint256"}],"stateMutability":"view"},{"type":"function","name":"getMintingStats","inputs":[],"outputs":[{"name":"todayMinted","type":"uint256","internalType":"uint256"},{"name":"dailyRemaining","type":"uint256","internalType":"uint256"},{"name":"allTimeMinted","type":"uint256","internalType":"uint256"},{"name":"breakerStatus","type":"bool","internalType":"bool"}],"stateMutability":"view"},{"type":"function","name":"getProducerStats","inputs":[{"name":"_producer","type":"address","internalType":"address"}],"outputs":[{"name":"totalMintedByProducer","type":"uint256","internalType":"uint256"}],"stateMutability":"view"},{"type":"function","name":"getRoleAdmin","inputs":[{"name":"role","type":"bytes32","internalType":"bytes32"}],"outputs":[{"name":"","type":"bytes32","internalType":"bytes32"}],"stateMutability":"view"},{"type":"function","name":"grantRole","inputs":[{"name":"role","type":"bytes32","internalType":"bytes32"},{"name":"account","type":"address","internalType":"address"}],"outputs":[],"stateMutability":"nonpayable"},{"type":"function","name":"hasRole","inputs":[{"name":"role","type":"bytes32","internalType":"bytes32"},{"name":"account","type":"address","internalType":"address"}],"outputs":[{"name":"","type":"bool","internalType":"bool"}],"stateMutability":"view"},{"type":"function","name":"lastMintResetTimestamp","inputs":[],"outputs":[{"name":"","type":"uint256","internalType":"uint256"}],"stateMutability":"view"},{"type":"function","name":"maxDailyMint","inputs":[],"outputs":[{"name":"","type":"uint256","internalType":"uint256"}],"stateMutability":"view"},{"type":"function","name":"mintFromGeneration","inputs":[{"name":"_producer","type":"address","internalType":"address"},{"name":"_kwhAmount","type":"uint256","internalType":"uint256"},{"name":"_ipfsProof","type":"string","internalType":"string"}],"outputs":[{"name":"mintedAmount","type":"uint256","internalType":"uint256"}],"stateMutability":"nonpayable"},{"type":"function","name":"pause","inputs":[],"outputs":[],"stateMutability":"nonpayable"},{"type":"function","name":"paused","inputs":[],"outputs":[{"name":"","type":"bool","internalType":"bool"}],"stateMutability":"view"},{"type":"function","name":"producerTotalMinted","inputs":[{"name":"","type":"address","internalType":"address"}],"outputs":[{"name":"","type":"uint256","internalType":"uint256"}],"stateMutability":"view"},{"type":"function","name":"registry","inputs":[],"outputs":[{"name":"","type":"address","internalType":"contract IRegistry"}],"stateMutability":"view"},{"type":"function","name":"renounceRole","inputs":[{"name":"role","type":"bytes32","internalType":"bytes32"},{"name":"callerConfirmation","type":"address","internalType":"address"}],"outputs":[],"stateMutability":"nonpayable"},{"type":"function","name":"resetCircuitBreaker","inputs":[],"outputs":[],"stateMutability":"nonpayable"},{"type":"function","name":"revokeRole","inputs":[{"name":"role","type":"bytes32","internalType":"bytes32"},{"name":"account","type":"address","internalType":"address"}],"outputs":[],"stateMutability":"nonpayable"},{"type":"function","name":"sarcToken","inputs":[],"outputs":[{"name":"","type":"address","internalType":"contract ISARCToken"}],"stateMutability":"view"},{"type":"function","name":"setAnomalyThreshold","inputs":[{"name":"_newThreshold","type":"uint256","internalType":"uint256"}],"outputs":[],"stateMutability":"nonpayable"},{"type":"function","name":"setMaxDailyMint","inputs":[{"name":"_newMax","type":"uint256","internalType":"uint256"}],"outputs":[],"stateMutability":"nonpayable"},{"type":"function","name":"setRegistry","inputs":[{"name":"_newRegistry","type":"address","internalType":"address"}],"outputs":[],"stateMutability":"nonpayable"},{"type":"function","name":"supportsInterface","inputs":[{"name":"interfaceId","type":"bytes4","internalType":"bytes4"}],"outputs":[{"name":"","type":"bool","internalType":"bool"}],"stateMutability":"view"},{"type":"function","name":"totalMinted","inputs":[],"outputs":[{"name":"","type":"uint256","internalType":"uint256"}],"stateMutability":"view"},{"type":"function","name":"triggerCircuitBreaker","inputs":[{"name":"_reason","type":"string","internalType":"string"}],"outputs":[],"stateMutability":"nonpayable"},{"type":"function","name":"unpause","inputs":[],"outputs":[],"stateMutability":"nonpayable"},{"type":"event","name":"AnomalyThresholdUpdated","inputs":[{"name":"oldThreshold","type":"uint256","indexed":false,"internalType":"uint256"},{"name":"newThreshold","type":"uint256","indexed":false,"internalType":"uint256"}],"anonymous":false},{"type":"event","name":"CircuitBreakerReset","inputs":[{"name":"admin","type":"address","indexed":true,"internalType":"address"}],"anonymous":false},{"type":"event","name":"CircuitBreakerTriggered","inputs":[{"name":"reason","type":"string","indexed":false,"internalType":"string"},{"name":"timestamp","type":"uint256","indexed":false,"internalType":"uint256"}],"anonymous":false},{"type":"event","name":"MaxDailyMintUpdated","inputs":[{"name":"oldMax","type":"uint256","indexed":false,"internalType":"uint256"},{"name":"newMax","type":"uint256","indexed":false,"internalType":"uint256"}],"anonymous":false},{"type":"event","name":"Minted","inputs":[{"name":"producer","type":"address","indexed":true,"internalType":"address"},{"name":"kwhAmount","type":"uint256","indexed":false,"internalType":"uint256"},{"name":"sarcAmount","type":"uint256","indexed":false,"internalType":"uint256"},{"name":"ipfsProof","type":"string","indexed":false,"internalType":"string"}],"anonymous":false},{"type":"event","name":"Paused","inputs":[{"name":"account","type":"address","indexed":false,"internalType":"address"}],"anonymous":false},{"type":"event","name":"RoleAdminChanged","inputs":[{"name":"role","type":"bytes32","indexed":true,"internalType":"bytes32"},{"name":"previousAdminRole","type":"bytes32","indexed":true,"internalType":"bytes32"},{"name":"newAdminRole","type":"bytes32","indexed":true,"internalType":"bytes32"}],"anonymous":false},{"type":"event","name":"RoleGranted","inputs":[{"name":"role","type":"bytes32","indexed":true,"internalType":"bytes32"},{"name":"account","type":"address","indexed":true,"internalType":"address"},{"name":"sender","type":"address","indexed":true,"internalType":"address"}],"anonymous":false},{"type":"event","name":"RoleRevoked","inputs":[{"name":"role","type":"bytes32","indexed":true,"internalType":"bytes32"},{"name":"account","type":"address","indexed":true,"internalType":"address"},{"name":"sender","type":"address","indexed":true,"internalType":"address"}],"anonymous":false},{"type":"event","name":"Unpaused","inputs":[{"name":"account","type":"address","indexed":false,"internalType":"address"}],"anonymous":false},{"type":"error","name":"AccessControlBadConfirmation","inputs":[]},{"type":"error","name":"AccessControlUnauthorizedAccount","inputs":[{"name":"account","type":"address","internalType":"address"},{"name":"neededRole","type":"bytes32","internalType":"bytes32"}]},{"type":"error","name":"EnforcedPause","inputs":[]},{"type":"error","name":"ExpectedPause","inputs":[]},{"type":"error","name":"ReentrancyGuardReentrantCall","inputs":[]}],"bytecode":{"object":"0x608060405234801562000010575f80fd5b50604051620016ae380380620016ae8339810160408190526200003391620002b4565b60016002556001600160a01b038416620000945760405162461bcd60e51b815260206004820152601860248201527f496e76616c69642072656769737472792061646472657373000000000000000060448201526064015b60405180910390fd5b6001600160a01b038316620000ec5760405162461bcd60e51b815260206004820152601560248201527f496e76616c696420746f6b656e2061646472657373000000000000000000000060448201526064016200008b565b5f82116200013d5760405162461bcd60e51b815260206004820152601a60248201527f4d6178206461696c79206d696e74206d757374206265203e203000000000000060448201526064016200008b565b600380546001600160a01b038087166001600160a01b03199283161790925560048054928616929091169190911790556005829055600981905542600755620001875f33620001ec565b50620001b47f97667070c54ef182b0f5858b034beac1b6f3089aa2d3188bb1e8929f4fa9b92933620001ec565b50620001e17f9f2df0fed2c77648de5860a4cc508cd0818c85b8b8a1ab4ceeef8d981c8956a633620001ec565b5050505050620002f9565b5f828152602081815260408083206001600160a01b038516845290915281205460ff166200028f575f838152602081815260408083206001600160a01b03861684529091529020805460ff19166001179055620002463390565b6001600160a01b0316826001600160a01b0316847f2f8788117e7eff1d82e926ec794901d17c78024a50270940304540a733656f0d60405160405180910390a450600162000292565b505f5b92915050565b80516001600160a01b0381168114620002af575f80fd5b919050565b5f805f8060808587031215620002c8575f80fd5b620002d38562000298565b9350620002e36020860162000298565b6040860151606090960151949790965092505050565b6113a780620003075f395ff3fe608060405234801561000f575f80fd5b50600436106101d1575f3560e01c806391d14854116100fe578063cae28ff81161009e578063f3c05f261161006e578063f3c05f26146103f8578063f5b541a61461040b578063fb83a6641461041f578063fd1ce9f714610428575f80fd5b8063cae28ff8146103a3578063d5391393146103b6578063d547741f146103dd578063de5f8d93146103f0575f80fd5b8063a91ee0dc116100d9578063a91ee0dc14610340578063ae80db0414610353578063b7eb6d241461035c578063b820787a14610384575f80fd5b806391d148541461031d578063a217fddf14610330578063a2309ff814610337575f80fd5b806351108cac116101745780636f83a586116101445780636f83a586146102ce5780637a145809146102d75780637b103999146103025780638456cb5914610315575f80fd5b806351108cac1461029a5780635c975abb146102a757806361b242c5146102b2578063697a9d7c146102c5575f80fd5b80632f2ff15d116101af5780632f2ff15d14610242578063325e8c251461025557806336568abe1461027f5780633f4ba83a14610292575f80fd5b806301ffc9a7146101d5578063248a9ca3146101fd578063297988461461022d575b5f80fd5b6101e86101e3366004610f9f565b610437565b60405190151581526020015b60405180910390f35b61021f61020b366004610fcd565b5f9081526020819052604090206001015490565b6040519081526020016101f4565b61024061023b366004610fcd565b61046d565b005b610240610250366004610fff565b610517565b61025d610541565b60408051948552602085019390935291830152151560608201526080016101f4565b61024061028d366004610fff565b6105a8565b6102406105e0565b6008546101e89060ff1681565b60015460ff166101e8565b6102406102c03660046110e7565b6105f5565b61021f60075481565b61021f60095481565b6004546102ea906001600160a01b031681565b6040516001600160a01b0390911681526020016101f4565b6003546102ea906001600160a01b031681565b61024061069e565b6101e861032b366004610fff565b6106b0565b61021f5f81565b61021f600a5481565b61024061034e366004611121565b6106d8565b61021f60055481565b61021f61036a366004611121565b6001600160a01b03165f908152600b602052604090205490565b61021f610392366004611121565b600b6020525f908152604090205481565b61021f6103b136600461113a565b61074d565b61021f7f9f2df0fed2c77648de5860a4cc508cd0818c85b8b8a1ab4ceeef8d981c8956a681565b6102406103eb366004610fff565b610c25565b610240610c49565b610240610406366004610fcd565b610ccc565b61021f5f8051602061135283398151915281565b61021f60065481565b61021f670de0b6b3a764000081565b5f6001600160e01b03198216637965db0b60e01b148061046757506301ffc9a760e01b6001600160e01b03198316145b92915050565b5f8051602061135283398151915261048481610d62565b5f82116104d05760405162461bcd60e51b815260206004820152601560248201527405468726573686f6c64206d757374206265203e203605c1b60448201526064015b60405180910390fd5b600980549083905560408051828152602081018590527f30f0cad552f14df65179d5a53fe62e99165eca8e3848db78089af612175fee8291015b60405180910390a1505050565b5f8281526020819052604090206001015461053181610d62565b61053b8383610d6c565b50505050565b5f805f80620151806007544261055791906111a1565b10610569575f93506005549250610592565b60065493506006546005541161057f575f61058f565b60065460055461058f91906111a1565b92505b5050600a5460085492939192909160ff90911690565b6001600160a01b03811633146105d15760405163334bd91960e11b815260040160405180910390fd5b6105db8282610dfb565b505050565b5f6105ea81610d62565b6105f2610e64565b50565b5f8051602061135283398151915261060c81610d62565b60085460ff16156106535760405162461bcd60e51b8152602060048201526011602482015270105b1c9958591e481d1c9a59d9d95c9959607a1b60448201526064016104c7565b6008805460ff191660011790556040517f9a67283e259b60ad992613fe36fe808ce9a65fc69b7893a856fbe5f926f25184906106929084904290611201565b60405180910390a15050565b5f6106a881610d62565b6105f2610eb6565b5f918252602082815260408084206001600160a01b0393909316845291905290205460ff1690565b5f6106e281610d62565b6001600160a01b03821661072a5760405162461bcd60e51b815260206004820152600f60248201526e496e76616c6964206164647265737360881b60448201526064016104c7565b50600380546001600160a01b0319166001600160a01b0392909216919091179055565b5f7f9f2df0fed2c77648de5860a4cc508cd0818c85b8b8a1ab4ceeef8d981c8956a661077881610d62565b610780610ef1565b610788610f19565b60085460ff16156107d45760405162461bcd60e51b81526020600482015260166024820152754369726375697420627265616b65722061637469766560501b60448201526064016104c7565b6001600160a01b03851661082a5760405162461bcd60e51b815260206004820152601860248201527f496e76616c69642070726f64756365722061646472657373000000000000000060448201526064016104c7565b5f841161086e5760405162461bcd60e51b81526020600482015260126024820152710416d6f756e74206d757374206265203e20360741b60448201526064016104c7565b5f8351116108b45760405162461bcd60e51b815260206004820152601360248201527212541194c81c1c9bdbd9881c995c5d5a5c9959606a1b60448201526064016104c7565b62015180600754426108c691906111a1565b106108d4575f600655426007555b600354604051633af32abf60e01b81526001600160a01b03878116600483015290911690633af32abf90602401602060405180830381865afa15801561091c573d5f803e3d5ffd5b505050506040513d601f19601f820116820180604052508101906109409190611231565b61098c5760405162461bcd60e51b815260206004820152601860248201527f50726f6475636572206e6f742077686974656c6973746564000000000000000060448201526064016104c7565b600354604051631e3a4dff60e11b81526001600160a01b038781166004830152602482018790525f928392911690633c749bfe906044015f60405180830381865afa1580156109dd573d5f803e3d5ffd5b505050506040513d5f823e601f3d908101601f19168201604052610a04919081019061124a565b91509150818190610a285760405162461bcd60e51b81526004016104c791906112cf565b50670de0b6b3a7640000610a3c81886112e1565b610a4691906112f8565b935060055484600654610a599190611317565b1115610aa75760405162461bcd60e51b815260206004820152601b60248201527f45786365656473206461696c79206d696e74696e67206c696d6974000000000060448201526064016104c7565b8360065f828254610ab89190611317565b9250508190555083600a5f828254610ad09190611317565b90915550506001600160a01b0387165f908152600b602052604081208054869290610afc908490611317565b9091555050600354604051631bb0d7bf60e01b81526001600160a01b038981166004830152602482018990526044820187905290911690631bb0d7bf906064015f604051808303815f87803b158015610b53575f80fd5b505af1158015610b65573d5f803e3d5ffd5b5050600480546040516340c10f1960e01b81526001600160a01b038c81169382019390935260248101899052911692506340c10f1991506044015f604051808303815f87803b158015610bb6575f80fd5b505af1158015610bc8573d5f803e3d5ffd5b50505050866001600160a01b03167ff2cb5e52049d127ad1c335f1cc25f2fdbc911bec1beb2611f4c1e8b1c274d4b4878688604051610c099392919061132a565b60405180910390a25050610c1d6001600255565b509392505050565b5f82815260208190526040902060010154610c3f81610d62565b61053b8383610dfb565b5f610c5381610d62565b60085460ff16610c955760405162461bcd60e51b815260206004820152600d60248201526c139bdd081d1c9a59d9d95c9959609a1b60448201526064016104c7565b6008805460ff1916905560405133907f07663ee3f7c1099057fc9fc555efb675b77fe234386ec977b12f15d5f24fd030905f90a250565b5f80516020611352833981519152610ce381610d62565b5f8211610d245760405162461bcd60e51b815260206004820152600f60248201526e04d6178206d757374206265203e203608c1b60448201526064016104c7565b600580549083905560408051828152602081018590527f23a75653338d1a115fe399f6e5daa36a99ffb455637df25caf412df61b147ea7910161050a565b6105f28133610f3f565b5f610d7783836106b0565b610df4575f838152602081815260408083206001600160a01b03861684529091529020805460ff19166001179055610dac3390565b6001600160a01b0316826001600160a01b0316847f2f8788117e7eff1d82e926ec794901d17c78024a50270940304540a733656f0d60405160405180910390a4506001610467565b505f610467565b5f610e0683836106b0565b15610df4575f838152602081815260408083206001600160a01b0386168085529252808320805460ff1916905551339286917ff6391f5c32d9c69d2a47ea670b442974b53935d1edc7fd64eb21e047a839171b9190a4506001610467565b610e6c610f7c565b6001805460ff191690557f5db9ee0a495bf2e6ff9c91a7834c1ba4fdd244a5e8aa4e537bd38aeae4b073aa335b6040516001600160a01b03909116815260200160405180910390a1565b610ebe610f19565b6001805460ff1916811790557f62e78cea01bee320cd4e420270b5ea74000d11b0c9f74754ebdbfc544b05a25833610e99565b6002805403610f1357604051633ee5aeb560e01b815260040160405180910390fd5b60028055565b60015460ff1615610f3d5760405163d93c066560e01b815260040160405180910390fd5b565b610f4982826106b0565b610f785760405163e2517d3f60e01b81526001600160a01b0382166004820152602481018390526044016104c7565b5050565b60015460ff16610f3d57604051638dfc202b60e01b815260040160405180910390fd5b5f60208284031215610faf575f80fd5b81356001600160e01b031981168114610fc6575f80fd5b9392505050565b5f60208284031215610fdd575f80fd5b5035919050565b80356001600160a01b0381168114610ffa575f80fd5b919050565b5f8060408385031215611010575f80fd5b8235915061102060208401610fe4565b90509250929050565b634e487b7160e01b5f52604160045260245ffd5b604051601f8201601f1916810167ffffffffffffffff8111828210171561106657611066611029565b604052919050565b5f67ffffffffffffffff82111561108757611087611029565b50601f01601f191660200190565b5f82601f8301126110a4575f80fd5b81356110b76110b28261106e565b61103d565b8181528460208386010111156110cb575f80fd5b816020850160208301375f918101602001919091529392505050565b5f602082840312156110f7575f80fd5b813567ffffffffffffffff81111561110d575f80fd5b61111984828501611095565b949350505050565b5f60208284031215611131575f80fd5b610fc682610fe4565b5f805f6060848603121561114c575f80fd5b61115584610fe4565b925060208401359150604084013567ffffffffffffffff811115611177575f80fd5b61118386828701611095565b9150509250925092565b634e487b7160e01b5f52601160045260245ffd5b818103818111156104675761046761118d565b5f5b838110156111ce5781810151838201526020016111b6565b50505f910152565b5f81518084526111ed8160208601602086016111b4565b601f01601f19169290920160200192915050565b604081525f61121360408301856111d6565b90508260208301529392505050565b80518015158114610ffa575f80fd5b5f60208284031215611241575f80fd5b610fc682611222565b5f806040838503121561125b575f80fd5b61126483611222565b9150602083015167ffffffffffffffff81111561127f575f80fd5b8301601f8101851361128f575f80fd5b805161129d6110b28261106e565b8181528660208385010111156112b1575f80fd5b6112c28260208301602086016111b4565b8093505050509250929050565b602081525f610fc660208301846111d6565b80820281158282048414176104675761046761118d565b5f8261131257634e487b7160e01b5f52601260045260245ffd5b500490565b808201808211156104675761046761118d565b838152826020820152606060408201525f61134860608301846111d6565b9594505050505056fe97667070c54ef182b0f5858b034beac1b6f3089aa2d3188bb1e8929f4fa9b929a26469706673582212203a487d60f697d57b81ceed16ba93d8fc2f1d2302e60797b94bc8e55174beddc964736f6c63430008140033","linkReferences":{}},"methodIdentifiers":{"DEFAULT_ADMIN_ROLE()":"a217fddf","KWH_TO_SARC_RATE()":"fd1ce9f7","MINTER_ROLE()":"d5391393","OPERATOR_ROLE()":"f5b541a6","anomalyThreshold()":"6f83a586","circuitBreakerTriggered()":"51108cac","currentDayMinted()":"fb83a664","getMintingStats()":"325e8c25","getProducerStats(address)":"b7eb6d24","getRoleAdmin(bytes32)":"248a9ca3","grantRole(bytes32,address)":"2f2ff15d","hasRole(bytes32,address)":"91d14854","lastMintResetTimestamp()":"697a9d7c","maxDailyMint()":"ae80db04","mintFromGeneration(address,uint256,string)":"cae28ff8","pause()":"8456cb59","paused()":"5c975abb","producerTotalMinted(address)":"b820787a","registry()":"7b103999","renounceRole(bytes32,address)":"36568abe","resetCircuitBreaker()":"de5f8d93","revokeRole(bytes32,address)":"d547741f","sarcToken()":"7a145809","setAnomalyThreshold(uint256)":"29798846","setMaxDailyMint(uint256)":"f3c05f26","setRegistry(address)":"a91ee0dc","supportsInterface(bytes4)":"01ffc9a7","totalMinted()":"a2309ff8","triggerCircuitBreaker(string)":"61b242c5","unpause()":"3f4ba83a"},"id":12}