{"abi":[{"type":"constructor","inputs":[],"stateMutability":"nonpayable"},{"type":"function","name":"DEFAULT_ADMIN_ROLE","inputs":[],"outputs":[{"name":"","type":"bytes32","internalType":"bytes32"}],"stateMutability":"view"},{"type":"function","name":"OPERATOR_ROLE","inputs":[],"outputs":[{"name":"","type":"bytes32","internalType":"bytes32"}],"stateMutability":"view"},{"type":"function","name":"getProducer","inputs":[{"name":"_producer","type":"address","internalType":"address"}],"outputs":[{"name":"","type":"tuple","internalType":"struct Registry.Producer","components":[{"name":"isWhitelisted","type":"bool","internalType":"bool"},{"name":"systemCapacityKw","type":"uint256","internalType":"uint256"},{"name":"dailyCapKwh","type":"uint256","internalType":"uint256"},{"name":"totalMinted","type":"uint256","internalType":"uint256"},{"name":"lastMintTimestamp","type":"uint256","internalType":"uint256"},{"name":"ipfsMetadata","type":"string","internalType":"string"},{"name":"registrationDate","type":"uint256","internalType":"uint256"}]}],"stateMutability":"view"},{"type":"function","name":"getRoleAdmin","inputs":[{"name":"role","type":"bytes32","internalType":"bytes32"}],"outputs":[{"name":"","type":"bytes32","internalType":"bytes32"}],"stateMutability":"view"},{"type":"function","name":"grantRole","inputs":[{"name":"role","type":"bytes32","internalType":"bytes32"},{"name":"account","type":"address","internalType":"address"}],"outputs":[],"stateMutability":"nonpayable"},{"type":"function","name":"hasRole","inputs":[{"name":"role","type":"bytes32","internalType":"bytes32"},{"name":"account","type":"address","internalType":"address"}],"outputs":[{"name":"","type":"bool","internalType":"bool"}],"stateMutability":"view"},{"type":"function","name":"isWhitelisted","inputs":[{"name":"_producer","type":"address","internalType":"address"}],"outputs":[{"name":"","type":"bool","internalType":"bool"}],"stateMutability":"view"},{"type":"function","name":"pause","inputs":[],"outputs":[],"stateMutability":"nonpayable"},{"type":"function","name":"paused","inputs":[],"outputs":[{"name":"","type":"bool","internalType":"bool"}],"stateMutability":"view"},{"type":"function","name":"producers","inputs":[{"name":"","type":"address","internalType":"address"}],"outputs":[{"name":"isWhitelisted","type":"bool","internalType":"bool"},{"name":"systemCapacityKw","type":"uint256","internalType":"uint256"},{"name":"dailyCapKwh","type":"uint256","internalType":"uint256"},{"name":"totalMinted","type":"uint256","internalType":"uint256"},{"name":"lastMintTimestamp","type":"uint256","internalType":"uint256"},{"name":"ipfsMetadata","type":"string","internalType":"string"},{"name":"registrationDate","type":"uint256","internalType":"uint256"}],"stateMutability":"view"},{"type":"function","name":"recordProduction","inputs":[{"name":"_producer","type":"address","internalType":"address"},{"name":"_kwhAmount","type":"uint256","internalType":"uint256"},{"name":"_mintedAmount","type":"uint256","internalType":"uint256"}],"outputs":[],"stateMutability":"nonpayable"},{"type":"function","name":"registerProducer","inputs":[{"name":"_producer","type":"address","internalType":"address"},{"name":"_systemCapacityKw","type":"uint256","internalType":"uint256"},{"name":"_dailyCapKwh","type":"uint256","internalType":"uint256"},{"name":"_ipfsMetadata","type":"string","internalType":"string"}],"outputs":[],"stateMutability":"nonpayable"},{"type":"function","name":"removeProducer","inputs":[{"name":"_producer","type":"address","internalType":"address"}],"outputs":[],"stateMutability":"nonpayable"},{"type":"function","name":"renounceRole","inputs":[{"name":"role","type":"bytes32","internalType":"bytes32"},{"name":"callerConfirmation","type":"address","internalType":"address"}],"outputs":[],"stateMutability":"nonpayable"},{"type":"function","name":"revokeRole","inputs":[{"name":"role","type":"bytes32","internalType":"bytes32"},{"name":"account","type":"address","internalType":"address"}],"outputs":[],"stateMutability":"nonpayable"},{"type":"function","name":"supportsInterface","inputs":[{"name":"interfaceId","type":"bytes4","internalType":"bytes4"}],"outputs":[{"name":"","type":"bool","internalType":"bool"}],"stateMutability":"view"},{"type":"function","name":"unpause","inputs":[],"outputs":[],"stateMutability":"nonpayable"},{"type":"function","name":"updateProducer","inputs":[{"name":"_producer","type":"address","internalType":"address"},{"name":"_newCapacityKw","type":"uint256","internalType":"uint256"},{"name":"_newDailyCap","type":"uint256","internalType":"uint256"}],"outputs":[],"stateMutability":"nonpayable"},{"type":"function","name":"validateDailyProduction","inputs":[{"name":"_producer","type":"address","internalType":"address"},{"name":"_kwhAmount","type":"uint256","internalType":"uint256"}],"outputs":[{"name":"isValid","type":"bool","internalType":"bool"},{"name":"reason","type":"string","internalType":"string"}],"stateMutability":"view"},{"type":"event","name":"Paused","inputs":[{"name":"account","type":"address","indexed":false,"internalType":"address"}],"anonymous":false},{"type":"event","name":"ProducerRegistered","inputs":[{"name":"producer","type":"address","indexed":true,"internalType":"address"},{"name":"systemCapacityKw","type":"uint256","indexed":false,"internalType":"uint256"},{"name":"dailyCapKwh","type":"uint256","indexed":false,"internalType":"uint256"},{"name":"ipfsMetadata","type":"string","indexed":false,"internalType":"string"}],"anonymous":false},{"type":"event","name":"ProducerRemoved","inputs":[{"name":"producer","type":"address","indexed":true,"internalType":"address"}],"anonymous":false},{"type":"event","name":"ProducerUpdated","inputs":[{"name":"producer","type":"address","indexed":true,"internalType":"address"},{"name":"newCapacityKw","type":"uint256","indexed":false,"internalType":"uint256"},{"name":"newDailyCap","type":"uint256","indexed":false,"internalType":"uint256"}],"anonymous":false},{"type":"event","name":"ProductionRecorded","inputs":[{"name":"producer","type":"address","indexed":true,"internalType":"address"},{"name":"kwhAmount","type":"uint256","indexed":false,"internalType":"uint256"},{"name":"mintedAmount","type":"uint256","indexed":false,"internalType":"uint256"}],"anonymous":false},{"type":"event","name":"RoleAdminChanged","inputs":[{"name":"role","type":"bytes32","indexed":true,"internalType":"bytes32"},{"name":"previousAdminRole","type":"bytes32","indexed":true,"internalType":"bytes32"},{"name":"newAdminRole","type":"bytes32","indexed":true,"internalType":"bytes32"}],"anonymous":false},{"type":"event","name":"RoleGranted","inputs":[{"name":"role","type":"bytes32","indexed":true,"internalType":"bytes32"},{"name":"account","type":"address","indexed":true,"internalType":"address"},{"name":"sender","type":"address","indexed":true,"internalType":"address"}],"anonymous":false},{"type":"event","name":"RoleRevoked","inputs":[{"name":"role","type":"bytes32","indexed":true,"internalType":"bytes32"},{"name":"account","type":"address","indexed":true,"internalType":"address"},{"name":"sender","type":"address","indexed":true,"internalType":"address"}],"anonymous":false},{"type":"event","name":"Unpaused","inputs":[{"name":"account","type":"address","indexed":false,"internalType":"address"}],"anonymous":false},{"type":"error","name":"AccessControlBadConfirmation","inputs":[]},{"type":"error","name":"AccessControlUnauthorizedAccount","inputs":[{"name":"account","type":"address","internalType":"address"},{"name":"neededRole","type":"bytes32","internalType":"bytes32"}]},{"type":"error","name":"EnforcedPause","inputs":[]},{"type":"error","name":"ExpectedPause","inputs":[]}],"bytecode":{"object":"0x608060405234801561000f575f80fd5b5061001a5f3361004b565b506100457f97667070c54ef182b0f5858b034beac1b6f3089aa2d3188bb1e8929f4fa9b9293361004b565b506100f4565b5f828152602081815260408083206001600160a01b038516845290915281205460ff166100eb575f838152602081815260408083206001600160a01b03861684529091529020805460ff191660011790556100a33390565b6001600160a01b0316826001600160a01b0316847f2f8788117e7eff1d82e926ec794901d17c78024a50270940304540a733656f0d60405160405180910390a45060016100ee565b505f5b92915050565b611581806101015f395ff3fe608060405234801561000f575f80fd5b506004361061011c575f3560e01c80633f185b6c116100a9578063a217fddf1161006e578063a217fddf14610279578063aab147b214610280578063bf86c8f8146102a0578063d547741f146102b3578063f5b541a6146102c6575f80fd5b80633f185b6c146102385780633f4ba83a1461024b5780635c975abb146102535780638456cb591461025e57806391d1485414610266575f80fd5b80632765b9e0116100ef5780632765b9e0146101b35780632f2ff15d146101c657806336568abe146101d95780633af32abf146101ec5780633c749bfe14610217575f80fd5b806301ffc9a7146101205780631bb0d7bf14610148578063248a9ca31461015d57806326324eff1461018d575b5f80fd5b61013361012e366004611084565b6102da565b60405190151581526020015b60405180910390f35b61015b6101563660046110cd565b610310565b005b61017f61016b3660046110fd565b5f9081526020819052604090206001015490565b60405190815260200161013f565b6101a061019b366004611114565b61041c565b60405161013f9796959493929190611170565b61015b6101c13660046111ca565b6104e4565b61015b6101d4366004611298565b6107a2565b61015b6101e7366004611298565b6107cc565b6101336101fa366004611114565b6001600160a01b03165f9081526002602052604090205460ff1690565b61022a6102253660046112c2565b610804565b60405161013f9291906112ea565b61015b610246366004611114565b610a99565b61015b610b5a565b60015460ff16610133565b61015b610b6f565b610133610274366004611298565b610b81565b61017f5f81565b61029361028e366004611114565b610ba9565b60405161013f919061130c565b61015b6102ae3660046110cd565b610ce2565b61015b6102c1366004611298565b610e4b565b61017f5f8051602061152c83398151915281565b5f6001600160e01b03198216637965db0b60e01b148061030a57506301ffc9a760e01b6001600160e01b03198316145b92915050565b5f8051602061152c83398151915261032781610e6f565b6001600160a01b0384165f9081526002602052604090205460ff1661038e5760405162461bcd60e51b8152602060048201526018602482015277141c9bd91d58d95c881b9bdd081dda1a5d195b1a5cdd195960421b60448201526064015b60405180910390fd5b6001600160a01b0384165f90815260026020526040812060030180548492906103b8908490611386565b90915550506001600160a01b0384165f818152600260209081526040918290204260049091015581518681529081018590527f8db324eb90335ca4595f76b0da9d812d5ef07b3c566b3918a8c4a36d3333cf5291015b60405180910390a250505050565b600260208190525f918252604090912080546001820154928201546003830154600484015460058501805460ff909516969593949293919261045d90611399565b80601f016020809104026020016040519081016040528092919081815260200182805461048990611399565b80156104d45780601f106104ab576101008083540402835291602001916104d4565b820191905f5260205f20905b8154815290600101906020018083116104b757829003601f168201915b5050505050908060060154905087565b5f8051602061152c8339815191526104fb81610e6f565b6001600160a01b0385166105515760405162461bcd60e51b815260206004820152601860248201527f496e76616c69642070726f6475636572206164647265737300000000000000006044820152606401610385565b6001600160a01b0385165f9081526002602052604090205460ff16156105b95760405162461bcd60e51b815260206004820152601b60248201527f50726f647563657220616c7265616479207265676973746572656400000000006044820152606401610385565b5f84116106085760405162461bcd60e51b815260206004820152601b60248201527f53797374656d206361706163697479206d757374206265203e203000000000006044820152606401610385565b5f831161064f5760405162461bcd60e51b815260206004820152601560248201527404461696c7920636170206d757374206265203e203605c1b6044820152606401610385565b61065a8460086113d1565b8311156106b85760405162461bcd60e51b815260206004820152602660248201527f4461696c79206361702065786365656473207265616c69737469632070726f646044820152653ab1ba34b7b760d11b6064820152608401610385565b6040805160e081018252600180825260208083018881528385018881525f606086018181526080870182815260a088018b81524260c08a01526001600160a01b038f168452600296879052989092208751815460ff191690151517815593519584019590955590519282019290925591516003830155516004820155915190919060058201906107489082611435565b5060c08201518160060155905050846001600160a01b03167fee304eda63fafcef33ba4872a771927aee738256c59851c941ed450bbcade036858585604051610793939291906114f1565b60405180910390a25050505050565b5f828152602081905260409020600101546107bc81610e6f565b6107c68383610e79565b50505050565b6001600160a01b03811633146107f55760405163334bd91960e11b815260040160405180910390fd5b6107ff8282610f08565b505050565b6001600160a01b0382165f908152600260208181526040808420815160e081018352815460ff161515815260018201549381019390935292830154908201526003820154606082810191909152600483015460808301526005830180549193859392909160a084019161087690611399565b80601f01602080910402602001604051908101604052809291908181526020018280546108a290611399565b80156108ed5780601f106108c4576101008083540402835291602001916108ed565b820191905f5260205f20905b8154815290600101906020018083116108d057829003601f168201915b505050505081526020016006820154815250509050805f0151610943575050604080518082019091526018815277141c9bd91d58d95c881b9bdd081dda1a5d195b1a5cdd195960421b60208201525f9150610a92565b835f0361097d5750506040805180820190915260128152710416d6f756e74206d757374206265203e20360741b60208201525f9150610a92565b80604001518411156109bb575050604080518082019091526011815270045786365656473206461696c792063617607c1b60208201525f9150610a92565b5f81608001511180156109de5750610e108160800151426109dc9190611518565b105b15610a1a5750506040805180820190915260168152754d696e74696e6720746f6f206672657175656e746c7960501b60208201525f9150610a92565b6020810151610a2a90600c6113d1565b841115610a6f57505060408051808201909152601981527f4578636565647320706879736963616c2063617061636974790000000000000060208201525f9150610a92565b505060408051808201909152600581526415985b1a5960da1b6020820152600191505b9250929050565b5f8051602061152c833981519152610ab081610e6f565b6001600160a01b0382165f9081526002602052604090205460ff16610b115760405162461bcd60e51b8152602060048201526017602482015276141c9bd91d58d95c881b9bdd081c9959da5cdd195c9959604a1b6044820152606401610385565b6001600160a01b0382165f81815260026020526040808220805460ff19169055517fb78e9906c5bae930ccf756a5214c9855b1782f0eb30f9566de2384f034af48f39190a25050565b5f610b6481610e6f565b610b6c610f71565b50565b5f610b7981610e6f565b610b6c610fc3565b5f918252602082815260408084206001600160a01b0393909316845291905290205460ff1690565b610be56040518060e001604052805f151581526020015f81526020015f81526020015f81526020015f8152602001606081526020015f81525090565b6001600160a01b0382165f90815260026020818152604092839020835160e081018552815460ff16151581526001820154928101929092529182015492810192909252600381015460608301526004810154608083015260058101805460a084019190610c5190611399565b80601f0160208091040260200160405190810160405280929190818152602001828054610c7d90611399565b8015610cc85780601f10610c9f57610100808354040283529160200191610cc8565b820191905f5260205f20905b815481529060010190602001808311610cab57829003601f168201915b505050505081526020016006820154815250509050919050565b5f8051602061152c833981519152610cf981610e6f565b6001600160a01b0384165f9081526002602052604090205460ff16610d5a5760405162461bcd60e51b8152602060048201526017602482015276141c9bd91d58d95c881b9bdd081c9959da5cdd195c9959604a1b6044820152606401610385565b5f8311610da95760405162461bcd60e51b815260206004820152601b60248201527f53797374656d206361706163697479206d757374206265203e203000000000006044820152606401610385565b5f8211610df05760405162461bcd60e51b815260206004820152601560248201527404461696c7920636170206d757374206265203e203605c1b6044820152606401610385565b6001600160a01b0384165f818152600260208181526040928390206001810188905590910185905581518681529081018590527fe8fbeb64b8e822f95c428a1ec01d72e82ce239df998ae06e3813cafa5d6d2628910161040e565b5f82815260208190526040902060010154610e6581610e6f565b6107c68383610f08565b610b6c8133610ffe565b5f610e848383610b81565b610f01575f838152602081815260408083206001600160a01b03861684529091529020805460ff19166001179055610eb93390565b6001600160a01b0316826001600160a01b0316847f2f8788117e7eff1d82e926ec794901d17c78024a50270940304540a733656f0d60405160405180910390a450600161030a565b505f61030a565b5f610f138383610b81565b15610f01575f838152602081815260408083206001600160a01b0386168085529252808320805460ff1916905551339286917ff6391f5c32d9c69d2a47ea670b442974b53935d1edc7fd64eb21e047a839171b9190a450600161030a565b610f7961103b565b6001805460ff191690557f5db9ee0a495bf2e6ff9c91a7834c1ba4fdd244a5e8aa4e537bd38aeae4b073aa335b6040516001600160a01b03909116815260200160405180910390a1565b610fcb611060565b6001805460ff1916811790557f62e78cea01bee320cd4e420270b5ea74000d11b0c9f74754ebdbfc544b05a25833610fa6565b6110088282610b81565b6110375760405163e2517d3f60e01b81526001600160a01b038216600482015260248101839052604401610385565b5050565b60015460ff1661105e57604051638dfc202b60e01b815260040160405180910390fd5b565b60015460ff161561105e5760405163d93c066560e01b815260040160405180910390fd5b5f60208284031215611094575f80fd5b81356001600160e01b0319811681146110ab575f80fd5b9392505050565b80356001600160a01b03811681146110c8575f80fd5b919050565b5f805f606084860312156110df575f80fd5b6110e8846110b2565b95602085013595506040909401359392505050565b5f6020828403121561110d575f80fd5b5035919050565b5f60208284031215611124575f80fd5b6110ab826110b2565b5f81518084525f5b8181101561115157602081850181015186830182015201611135565b505f602082860101526020601f19601f83011685010191505092915050565b871515815286602082015285604082015284606082015283608082015260e060a08201525f6111a260e083018561112d565b90508260c083015298975050505050505050565b634e487b7160e01b5f52604160045260245ffd5b5f805f80608085870312156111dd575f80fd5b6111e6856110b2565b93506020850135925060408501359150606085013567ffffffffffffffff80821115611210575f80fd5b818701915087601f830112611223575f80fd5b813581811115611235576112356111b6565b604051601f8201601f19908116603f0116810190838211818310171561125d5761125d6111b6565b816040528281528a6020848701011115611275575f80fd5b826020860160208301375f60208483010152809550505050505092959194509250565b5f80604083850312156112a9575f80fd5b823591506112b9602084016110b2565b90509250929050565b5f80604083850312156112d3575f80fd5b6112dc836110b2565b946020939093013593505050565b8215158152604060208201525f611304604083018461112d565b949350505050565b60208152815115156020820152602082015160408201526040820151606082015260608201516080820152608082015160a08201525f60a083015160e060c084015261135c61010084018261112d565b905060c084015160e08401528091505092915050565b634e487b7160e01b5f52601160045260245ffd5b8082018082111561030a5761030a611372565b600181811c908216806113ad57607f821691505b6020821081036113cb57634e487b7160e01b5f52602260045260245ffd5b50919050565b808202811582820484141761030a5761030a611372565b601f8211156107ff575f81815260208120601f850160051c8101602086101561140e5750805b601f850160051c820191505b8181101561142d5782815560010161141a565b505050505050565b815167ffffffffffffffff81111561144f5761144f6111b6565b6114638161145d8454611399565b846113e8565b602080601f831160018114611496575f841561147f5750858301515b5f19600386901b1c1916600185901b17855561142d565b5f85815260208120601f198616915b828110156114c4578886015182559484019460019091019084016114a5565b50858210156114e157878501515f19600388901b60f8161c191681555b5050505050600190811b01905550565b838152826020820152606060408201525f61150f606083018461112d565b95945050505050565b8181038181111561030a5761030a61137256fe97667070c54ef182b0f5858b034beac1b6f3089aa2d3188bb1e8929f4fa9b929a2646970667358221220c210327d10526c0e9a9d052a2f50f0eadc66586fa5587eec3871708e5424947d64736f6c63430008140033","linkReferences":{}},"methodIdentifiers":{"DEFAULT_ADMIN_ROLE()":"a217fddf","OPERATOR_ROLE()":"f5b541a6","getProducer(address)":"aab147b2","getRoleAdmin(bytes32)":"248a9ca3","grantRole(bytes32,address)":"2f2ff15d","hasRole(bytes32,address)":"91d14854","isWhitelisted(address)":"3af32abf","pause()":"8456cb59","paused()":"5c975abb","producers(address)":"26324eff","recordProduction(address,uint256,uint256)":"1bb0d7bf","registerProducer(address,uint256,uint256,string)":"2765b9e0","removeProducer(address)":"3f185b6c","renounceRole(bytes32,address)":"36568abe","revokeRole(bytes32,address)":"d547741f","supportsInterface(bytes4)":"01ffc9a7","unpause()":"3f4ba83a","updateProducer(address,uint256,uint256)":"bf86c8f8","validateDailyProduction(address,uint256)":"3c749bfe"},"id":13}