{"abi":[{"type":"constructor","inputs":[{"name":"_sarcToken","type":"address","internalType":"address"},{"name":"_usdcToken","type":"address","internalType":"address"},{"name":"_usdcPerKwh","type":"uint256","internalType":"uint256"}],"stateMutability":"nonpayable"},{"type":"function","name":"DEFAULT_ADMIN_ROLE","inputs":[],"outputs":[{"name":"","type":"bytes32","internalType":"bytes32"}],"stateMutability":"view"},{"type":"function","name":"MIN_REDEMPTION","inputs":[],"outputs":[{"name":"","type":"uint256","internalType":"uint256"}],"stateMutability":"view"},{"type":"function","name":"OPERATOR_ROLE","inputs":[],"outputs":[{"name":"","type":"bytes32","internalType":"bytes32"}],"stateMutability":"view"},{"type":"function","name":"calculateRedemptionAmount","inputs":[{"name":"_sarcAmount","type":"uint256","internalType":"uint256"}],"outputs":[{"name":"usdcAmount","type":"uint256","internalType":"uint256"}],"stateMutability":"view"},{"type":"function","name":"emergencyWithdrawSARC","inputs":[{"name":"_to","type":"address","internalType":"address"},{"name":"_amount","type":"uint256","internalType":"uint256"}],"outputs":[],"stateMutability":"nonpayable"},{"type":"function","name":"emergencyWithdrawUSDC","inputs":[{"name":"_to","type":"address","internalType":"address"},{"name":"_amount","type":"uint256","internalType":"uint256"}],"outputs":[],"stateMutability":"nonpayable"},{"type":"function","name":"fundTreasury","inputs":[{"name":"_amount","type":"uint256","internalType":"uint256"}],"outputs":[],"stateMutability":"nonpayable"},{"type":"function","name":"getRoleAdmin","inputs":[{"name":"role","type":"bytes32","internalType":"bytes32"}],"outputs":[{"name":"","type":"bytes32","internalType":"bytes32"}],"stateMutability":"view"},{"type":"function","name":"getTreasuryBalance","inputs":[],"outputs":[{"name":"sarcBalance","type":"uint256","internalType":"uint256"},{"name":"usdcBalance","type":"uint256","internalType":"uint256"}],"stateMutability":"view"},{"type":"function","name":"grantRole","inputs":[{"name":"role","type":"bytes32","internalType":"bytes32"},{"name":"account","type":"address","internalType":"address"}],"outputs":[],"stateMutability":"nonpayable"},{"type":"function","name":"hasRole","inputs":[{"name":"role","type":"bytes32","internalType":"bytes32"},{"name":"account","type":"address","internalType":"address"}],"outputs":[{"name":"","type":"bool","internalType":"bool"}],"stateMutability":"view"},{"type":"function","name":"pause","inputs":[],"outputs":[],"stateMutability":"nonpayable"},{"type":"function","name":"paused","inputs":[],"outputs":[{"name":"","type":"bool","internalType":"bool"}],"stateMutability":"view"},{"type":"function","name":"redeemForUSDC","inputs":[{"name":"_sarcAmount","type":"uint256","internalType":"uint256"},{"name":"_ipfsProof","type":"string","internalType":"string"}],"outputs":[],"stateMutability":"nonpayable"},{"type":"function","name":"renounceRole","inputs":[{"name":"role","type":"bytes32","internalType":"bytes32"},{"name":"callerConfirmation","type":"address","internalType":"address"}],"outputs":[],"stateMutability":"nonpayable"},{"type":"function","name":"revokeRole","inputs":[{"name":"role","type":"bytes32","internalType":"bytes32"},{"name":"account","type":"address","internalType":"address"}],"outputs":[],"stateMutability":"nonpayable"},{"type":"function","name":"sarcToken","inputs":[],"outputs":[{"name":"","type":"address","internalType":"contract IERC20"}],"stateMutability":"view"},{"type":"function","name":"setExchangeRate","inputs":[{"name":"_newRate","type":"uint256","internalType":"uint256"}],"outputs":[],"stateMutability":"nonpayable"},{"type":"function","name":"supportsInterface","inputs":[{"name":"interfaceId","type":"bytes4","internalType":"bytes4"}],"outputs":[{"name":"","type":"bool","internalType":"bool"}],"stateMutability":"view"},{"type":"function","name":"totalRedeemed","inputs":[],"outputs":[{"name":"","type":"uint256","internalType":"uint256"}],"stateMutability":"view"},{"type":"function","name":"totalUsdcDistributed","inputs":[],"outputs":[{"name":"","type":"uint256","internalType":"uint256"}],"stateMutability":"view"},{"type":"function","name":"unpause","inputs":[],"outputs":[],"stateMutability":"nonpayable"},{"type":"function","name":"usdcPerKwh","inputs":[],"outputs":[{"name":"","type":"uint256","internalType":"uint256"}],"stateMutability":"view"},{"type":"function","name":"usdcToken","inputs":[],"outputs":[{"name":"","type":"address","internalType":"contract IERC20"}],"stateMutability":"view"},{"type":"event","name":"EmergencyWithdraw","inputs":[{"name":"to","type":"address","indexed":true,"internalType":"address"},{"name":"amount","type":"uint256","indexed":false,"internalType":"uint256"}],"anonymous":false},{"type":"event","name":"ExchangeRateUpdated","inputs":[{"name":"oldRate","type":"uint256","indexed":false,"internalType":"uint256"},{"name":"newRate","type":"uint256","indexed":false,"internalType":"uint256"}],"anonymous":false},{"type":"event","name":"Paused","inputs":[{"name":"account","type":"address","indexed":false,"internalType":"address"}],"anonymous":false},{"type":"event","name":"Redeemed","inputs":[{"name":"user","type":"address","indexed":true,"internalType":"address"},{"name":"sarcAmount","type":"uint256","indexed":false,"internalType":"uint256"},{"name":"usdcAmount","type":"uint256","indexed":false,"internalType":"uint256"},{"name":"ipfsProof","type":"string","indexed":false,"internalType":"string"}],"anonymous":false},{"type":"event","name":"RoleAdminChanged","inputs":[{"name":"role","type":"bytes32","indexed":true,"internalType":"bytes32"},{"name":"previousAdminRole","type":"bytes32","indexed":true,"internalType":"bytes32"},{"name":"newAdminRole","type":"bytes32","indexed":true,"internalType":"bytes32"}],"anonymous":false},{"type":"event","name":"RoleGranted","inputs":[{"name":"role","type":"bytes32","indexed":true,"internalType":"bytes32"},{"name":"account","type":"address","indexed":true,"internalType":"address"},{"name":"sender","type":"address","indexed":true,"internalType":"address"}],"anonymous":false},{"type":"event","name":"RoleRevoked","inputs":[{"name":"role","type":"bytes32","indexed":true,"internalType":"bytes32"},{"name":"account","type":"address","indexed":true,"internalType":"address"},{"name":"sender","type":"address","indexed":true,"internalType":"address"}],"anonymous":false},{"type":"event","name":"TreasuryFunded","inputs":[{"name":"funder","type":"address","indexed":true,"internalType":"address"},{"name":"amount","type":"uint256","indexed":false,"internalType":"uint256"}],"anonymous":false},{"type":"event","name":"Unpaused","inputs":[{"name":"account","type":"address","indexed":false,"internalType":"address"}],"anonymous":false},{"type":"error","name":"AccessControlBadConfirmation","inputs":[]},{"type":"error","name":"AccessControlUnauthorizedAccount","inputs":[{"name":"account","type":"address","internalType":"address"},{"name":"neededRole","type":"bytes32","internalType":"bytes32"}]},{"type":"error","name":"EnforcedPause","inputs":[]},{"type":"error","name":"ExpectedPause","inputs":[]},{"type":"error","name":"ReentrancyGuardReentrantCall","inputs":[]},{"type":"error","name":"SafeERC20FailedOperation","inputs":[{"name":"token","type":"address","internalType":"address"}]}],"bytecode":{"object":"0x60c060405234801562000010575f80fd5b50604051620014c2380380620014c2833981016040819052620000339162000260565b60016002556001600160a01b038316620000945760405162461bcd60e51b815260206004820152601460248201527f496e76616c69642073415243206164647265737300000000000000000000000060448201526064015b60405180910390fd5b6001600160a01b038216620000ec5760405162461bcd60e51b815260206004820152601460248201527f496e76616c69642055534443206164647265737300000000000000000000000060448201526064016200008b565b5f81116200013d5760405162461bcd60e51b815260206004820152601960248201527f45786368616e67652072617465206d757374206265203e20300000000000000060448201526064016200008b565b6001600160a01b03808416608052821660a0526003819055620001615f3362000198565b506200018e7f97667070c54ef182b0f5858b034beac1b6f3089aa2d3188bb1e8929f4fa9b9293362000198565b505050506200029e565b5f828152602081815260408083206001600160a01b038516845290915281205460ff166200023b575f838152602081815260408083206001600160a01b03861684529091529020805460ff19166001179055620001f23390565b6001600160a01b0316826001600160a01b0316847f2f8788117e7eff1d82e926ec794901d17c78024a50270940304540a733656f0d60405160405180910390a45060016200023e565b505f5b92915050565b80516001600160a01b03811681146200025b575f80fd5b919050565b5f805f6060848603121562000273575f80fd5b6200027e8462000244565b92506200028e6020850162000244565b9150604084015190509250925092565b60805160a0516111c3620002ff5f395f8181610184015281816104760152818161071101528181610816015281816109830152610ba701525f8181610275015281816105d5015281816107e1015281816109020152610b2f01526111c35ff3fe608060405234801561000f575f80fd5b5060043610610153575f3560e01c80637a145809116100bf578063d547741f11610079578063d547741f146102e9578063db068e0e146102fc578063df5e5bc81461030f578063f35dad4014610322578063f5b541a61461032b578063f6471f4b14610352575f80fd5b80637a145809146102705780638456cb59146102975780638673a2241461029f57806391d14854146102b25780639b5655dc146102c5578063a217fddf146102e2575f80fd5b80633fac8105116101105780633fac81051461021e57806353d3ee591461023157806355a032b81461023a5780635c975abb1461024957806369d707741461025457806376074b351461025d575f80fd5b806301ffc9a71461015757806311eac8551461017f578063248a9ca3146101be5780632f2ff15d146101ee57806336568abe146102035780633f4ba83a14610216575b5f80fd5b61016a610165366004610f44565b610365565b60405190151581526020015b60405180910390f35b6101a67f000000000000000000000000000000000000000000000000000000000000000081565b6040516001600160a01b039091168152602001610176565b6101e06101cc366004610f72565b5f9081526020819052604090206001015490565b604051908152602001610176565b6102016101fc366004610fa4565b61039b565b005b610201610211366004610fa4565b6103c5565b6102016103fd565b61020161022c366004610fce565b610412565b6101e060055481565b6101e0670de0b6b3a764000081565b60015460ff1661016a565b6101e060035481565b6101e061026b366004610f72565b6104e5565b6101a67f000000000000000000000000000000000000000000000000000000000000000081565b610201610507565b6102016102ad36600461100a565b610519565b61016a6102c0366004610fa4565b6108b9565b6102cd6108e1565b60408051928352602083019190915201610176565b6101e05f81565b6102016102f7366004610fa4565b6109fa565b61020161030a366004610f72565b610a1e565b61020161031d366004610fce565b610ad0565b6101e060045481565b6101e07f97667070c54ef182b0f5858b034beac1b6f3089aa2d3188bb1e8929f4fa9b92981565b610201610360366004610f72565b610b56565b5f6001600160e01b03198216637965db0b60e01b148061039557506301ffc9a760e01b6001600160e01b03198316145b92915050565b5f828152602081905260409020600101546103b581610c07565b6103bf8383610c11565b50505050565b6001600160a01b03811633146103ee5760405163334bd91960e11b815260040160405180910390fd5b6103f88282610ca0565b505050565b5f61040781610c07565b61040f610d09565b50565b5f61041c81610c07565b6001600160a01b0383166104695760405162461bcd60e51b815260206004820152600f60248201526e496e76616c6964206164647265737360881b60448201526064015b60405180910390fd5b61049d6001600160a01b037f0000000000000000000000000000000000000000000000000000000000000000168484610d5b565b826001600160a01b03167f5fafa99d0643513820be26656b45130b01e1c03062e1266bf36f88cbd3bd9695836040516104d891815260200190565b60405180910390a2505050565b5f670de0b6b3a7640000600354836104fd91906110d3565b61039591906110ea565b5f61051181610c07565b61040f610dba565b610521610df5565b610529610e1d565b670de0b6b3a76400008210156105785760405162461bcd60e51b8152602060048201526014602482015273416d6f756e742062656c6f77206d696e696d756d60601b6044820152606401610460565b5f8151116105be5760405162461bcd60e51b815260206004820152601360248201527212541194c81c1c9bdbd9881c995c5d5a5c9959606a1b6044820152606401610460565b6040516370a0823160e01b815233600482015282907f00000000000000000000000000000000000000000000000000000000000000006001600160a01b0316906370a0823190602401602060405180830381865afa158015610622573d5f803e3d5ffd5b505050506040513d601f19601f820116820180604052508101906106469190611109565b10156106945760405162461bcd60e51b815260206004820152601960248201527f496e73756666696369656e7420734152432062616c616e6365000000000000006044820152606401610460565b5f620f4240600354846106a791906110d3565b6106b191906110ea565b90505f81116106fa5760405162461bcd60e51b81526020600482015260156024820152741554d110c8185b5bdd5b9d081d1bdbc81cdb585b1b605a1b6044820152606401610460565b6040516370a0823160e01b81523060048201525f907f00000000000000000000000000000000000000000000000000000000000000006001600160a01b0316906370a0823190602401602060405180830381865afa15801561075e573d5f803e3d5ffd5b505050506040513d601f19601f820116820180604052508101906107829190611109565b9050818110156107d45760405162461bcd60e51b815260206004820152601d60248201527f496e73756666696369656e742054726561737572792062616c616e63650000006044820152606401610460565b6108096001600160a01b037f000000000000000000000000000000000000000000000000000000000000000016333087610e43565b61083d6001600160a01b037f0000000000000000000000000000000000000000000000000000000000000000163384610d5b565b8360045f82825461084e9190611120565b925050819055508160055f8282546108669190611120565b909155505060405133907f1808b841eb16c14c59b7f58642fb214dc5a2fe88a2844142a9b1cc36aa9e3d0c906108a190879086908890611133565b60405180910390a250506108b56001600255565b5050565b5f918252602082815260408084206001600160a01b0393909316845291905290205460ff1690565b6040516370a0823160e01b81523060048201525f9081906001600160a01b037f000000000000000000000000000000000000000000000000000000000000000016906370a0823190602401602060405180830381865afa158015610947573d5f803e3d5ffd5b505050506040513d601f19601f8201168201806040525081019061096b9190611109565b6040516370a0823160e01b81523060048201529092507f00000000000000000000000000000000000000000000000000000000000000006001600160a01b0316906370a0823190602401602060405180830381865afa1580156109d0573d5f803e3d5ffd5b505050506040513d601f19601f820116820180604052508101906109f49190611109565b90509091565b5f82815260208190526040902060010154610a1481610c07565b6103bf8383610ca0565b7f97667070c54ef182b0f5858b034beac1b6f3089aa2d3188bb1e8929f4fa9b929610a4881610c07565b5f8211610a8a5760405162461bcd60e51b815260206004820152601060248201526f052617465206d757374206265203e20360841b6044820152606401610460565b600380549083905560408051828152602081018590527fc8d1043f24843c0a1c9251fdc30017d84e87498fbcf232af9f86816b5e182bde910160405180910390a1505050565b5f610ada81610c07565b6001600160a01b038316610b225760405162461bcd60e51b815260206004820152600f60248201526e496e76616c6964206164647265737360881b6044820152606401610460565b61049d6001600160a01b037f0000000000000000000000000000000000000000000000000000000000000000168484610d5b565b5f8111610b9a5760405162461bcd60e51b81526020600482015260126024820152710416d6f756e74206d757374206265203e20360741b6044820152606401610460565b610bcf6001600160a01b037f000000000000000000000000000000000000000000000000000000000000000016333084610e43565b60405181815233907fda1785fe1dec267c363b06ae3e02c3e086123f9d611399f7a1cc98492518372e9060200160405180910390a250565b61040f8133610e7c565b5f610c1c83836108b9565b610c99575f838152602081815260408083206001600160a01b03861684529091529020805460ff19166001179055610c513390565b6001600160a01b0316826001600160a01b0316847f2f8788117e7eff1d82e926ec794901d17c78024a50270940304540a733656f0d60405160405180910390a4506001610395565b505f610395565b5f610cab83836108b9565b15610c99575f838152602081815260408083206001600160a01b0386168085529252808320805460ff1916905551339286917ff6391f5c32d9c69d2a47ea670b442974b53935d1edc7fd64eb21e047a839171b9190a4506001610395565b610d11610eb5565b6001805460ff191690557f5db9ee0a495bf2e6ff9c91a7834c1ba4fdd244a5e8aa4e537bd38aeae4b073aa335b6040516001600160a01b03909116815260200160405180910390a1565b6040516001600160a01b038381166024830152604482018390526103f891859182169063a9059cbb906064015b604051602081830303815290604052915060e01b6020820180516001600160e01b038381831617835250505050610ed8565b610dc2610e1d565b6001805460ff1916811790557f62e78cea01bee320cd4e420270b5ea74000d11b0c9f74754ebdbfc544b05a25833610d3e565b6002805403610e1757604051633ee5aeb560e01b815260040160405180910390fd5b60028055565b60015460ff1615610e415760405163d93c066560e01b815260040160405180910390fd5b565b6040516001600160a01b0384811660248301528381166044830152606482018390526103bf9186918216906323b872dd90608401610d88565b610e8682826108b9565b6108b55760405163e2517d3f60e01b81526001600160a01b038216600482015260248101839052604401610460565b60015460ff16610e4157604051638dfc202b60e01b815260040160405180910390fd5b5f8060205f8451602086015f885af180610ef7576040513d5f823e3d81fd5b50505f513d91508115610f0e578060011415610f1b565b6001600160a01b0384163b155b156103bf57604051635274afe760e01b81526001600160a01b0385166004820152602401610460565b5f60208284031215610f54575f80fd5b81356001600160e01b031981168114610f6b575f80fd5b9392505050565b5f60208284031215610f82575f80fd5b5035919050565b80356001600160a01b0381168114610f9f575f80fd5b919050565b5f8060408385031215610fb5575f80fd5b82359150610fc560208401610f89565b90509250929050565b5f8060408385031215610fdf575f80fd5b610fe883610f89565b946020939093013593505050565b634e487b7160e01b5f52604160045260245ffd5b5f806040838503121561101b575f80fd5b82359150602083013567ffffffffffffffff80821115611039575f80fd5b818501915085601f83011261104c575f80fd5b81358181111561105e5761105e610ff6565b604051601f8201601f19908116603f0116810190838211818310171561108657611086610ff6565b8160405282815288602084870101111561109e575f80fd5b826020860160208301375f6020848301015280955050505050509250929050565b634e487b7160e01b5f52601160045260245ffd5b8082028115828204841417610395576103956110bf565b5f8261110457634e487b7160e01b5f52601260045260245ffd5b500490565b5f60208284031215611119575f80fd5b5051919050565b80820180821115610395576103956110bf565b8381525f602084818401526060604084015283518060608501525f5b8181101561116b5785810183015185820160800152820161114f565b505f608082860101526080601f19601f8301168501019250505094935050505056fea2646970667358221220e7c7bd92ce05f53d3ccd170ca0ade0ab234b1e5530cdb7a66a0f64b29de5a0e964736f6c63430008140033","linkReferences":{}},"methodIdentifiers":{"DEFAULT_ADMIN_ROLE()":"a217fddf","MIN_REDEMPTION()":"55a032b8","OPERATOR_ROLE()":"f5b541a6","calculateRedemptionAmount(uint256)":"76074b35","emergencyWithdrawSARC(address,uint256)":"df5e5bc8","emergencyWithdrawUSDC(address,uint256)":"3fac8105","fundTreasury(uint256)":"f6471f4b","getRoleAdmin(bytes32)":"248a9ca3","getTreasuryBalance()":"9b5655dc","grantRole(bytes32,address)":"2f2ff15d","hasRole(bytes32,address)":"91d14854","pause()":"8456cb59","paused()":"5c975abb","redeemForUSDC(uint256,string)":"8673a224","renounceRole(bytes32,address)":"36568abe","revokeRole(bytes32,address)":"d547741f","sarcToken()":"7a145809","setExchangeRate(uint256)":"db068e0e","supportsInterface(bytes4)":"01ffc9a7","totalRedeemed()":"f35dad40","totalUsdcDistributed()":"53d3ee59","unpause()":"3f4ba83a","usdcPerKwh()":"69d70774","usdcToken()":"11eac855"},"id":14}